{
  "_format": "hh-sol-artifact-1",
  "contractName": "SmileyNFT",
  "sourceName": "contracts/SmileyNFT.sol",
  "abi": [
    {
      "inputs": [],
      "stateMutability": "nonpayable",
      "type": "constructor"
    },
    {
      "anonymous": false,
      "inputs": [
        {
          "indexed": true,
          "internalType": "address",
          "name": "owner",
          "type": "address"
        },
        {
          "indexed": true,
          "internalType": "address",
          "name": "approved",
          "type": "address"
        },
        {
          "indexed": true,
          "internalType": "uint256",
          "name": "tokenId",
          "type": "uint256"
        }
      ],
      "name": "Approval",
      "type": "event"
    },
    {
      "anonymous": false,
      "inputs": [
        {
          "indexed": true,
          "internalType": "address",
          "name": "owner",
          "type": "address"
        },
        {
          "indexed": true,
          "internalType": "address",
          "name": "operator",
          "type": "address"
        },
        {
          "indexed": false,
          "internalType": "bool",
          "name": "approved",
          "type": "bool"
        }
      ],
      "name": "ApprovalForAll",
      "type": "event"
    },
    {
      "anonymous": false,
      "inputs": [
        {
          "indexed": false,
          "internalType": "address",
          "name": "sender",
          "type": "address"
        },
        {
          "indexed": false,
          "internalType": "uint256",
          "name": "tokenId",
          "type": "uint256"
        }
      ],
      "name": "NewSmileyNFTMinted",
      "type": "event"
    },
    {
      "anonymous": false,
      "inputs": [
        {
          "indexed": true,
          "internalType": "address",
          "name": "from",
          "type": "address"
        },
        {
          "indexed": true,
          "internalType": "address",
          "name": "to",
          "type": "address"
        },
        {
          "indexed": true,
          "internalType": "uint256",
          "name": "tokenId",
          "type": "uint256"
        }
      ],
      "name": "Transfer",
      "type": "event"
    },
    {
      "inputs": [
        {
          "internalType": "address",
          "name": "to",
          "type": "address"
        },
        {
          "internalType": "uint256",
          "name": "tokenId",
          "type": "uint256"
        }
      ],
      "name": "approve",
      "outputs": [],
      "stateMutability": "nonpayable",
      "type": "function"
    },
    {
      "inputs": [
        {
          "internalType": "address",
          "name": "owner",
          "type": "address"
        }
      ],
      "name": "balanceOf",
      "outputs": [
        {
          "internalType": "uint256",
          "name": "",
          "type": "uint256"
        }
      ],
      "stateMutability": "view",
      "type": "function"
    },
    {
      "inputs": [
        {
          "internalType": "uint256",
          "name": "tokenId",
          "type": "uint256"
        }
      ],
      "name": "generateRandomEyes",
      "outputs": [
        {
          "internalType": "string",
          "name": "",
          "type": "string"
        }
      ],
      "stateMutability": "view",
      "type": "function"
    },
    {
      "inputs": [
        {
          "internalType": "uint256",
          "name": "tokenId",
          "type": "uint256"
        }
      ],
      "name": "generateRandomMouth",
      "outputs": [
        {
          "internalType": "string",
          "name": "",
          "type": "string"
        }
      ],
      "stateMutability": "view",
      "type": "function"
    },
    {
      "inputs": [
        {
          "internalType": "uint256",
          "name": "tokenId",
          "type": "uint256"
        }
      ],
      "name": "getApproved",
      "outputs": [
        {
          "internalType": "address",
          "name": "",
          "type": "address"
        }
      ],
      "stateMutability": "view",
      "type": "function"
    },
    {
      "inputs": [],
      "name": "getNumberMinted",
      "outputs": [
        {
          "internalType": "uint256",
          "name": "",
          "type": "uint256"
        }
      ],
      "stateMutability": "view",
      "type": "function"
    },
    {
      "inputs": [
        {
          "internalType": "address",
          "name": "owner",
          "type": "address"
        },
        {
          "internalType": "address",
          "name": "operator",
          "type": "address"
        }
      ],
      "name": "isApprovedForAll",
      "outputs": [
        {
          "internalType": "bool",
          "name": "",
          "type": "bool"
        }
      ],
      "stateMutability": "view",
      "type": "function"
    },
    {
      "inputs": [],
      "name": "mintSmileyNFT",
      "outputs": [],
      "stateMutability": "nonpayable",
      "type": "function"
    },
    {
      "inputs": [],
      "name": "name",
      "outputs": [
        {
          "internalType": "string",
          "name": "",
          "type": "string"
        }
      ],
      "stateMutability": "view",
      "type": "function"
    },
    {
      "inputs": [
        {
          "internalType": "uint256",
          "name": "tokenId",
          "type": "uint256"
        }
      ],
      "name": "ownerOf",
      "outputs": [
        {
          "internalType": "address",
          "name": "",
          "type": "address"
        }
      ],
      "stateMutability": "view",
      "type": "function"
    },
    {
      "inputs": [
        {
          "internalType": "uint256",
          "name": "tokenId",
          "type": "uint256"
        }
      ],
      "name": "pickRandomFaceColor",
      "outputs": [
        {
          "internalType": "string",
          "name": "",
          "type": "string"
        }
      ],
      "stateMutability": "view",
      "type": "function"
    },
    {
      "inputs": [
        {
          "internalType": "address",
          "name": "from",
          "type": "address"
        },
        {
          "internalType": "address",
          "name": "to",
          "type": "address"
        },
        {
          "internalType": "uint256",
          "name": "tokenId",
          "type": "uint256"
        }
      ],
      "name": "safeTransferFrom",
      "outputs": [],
      "stateMutability": "nonpayable",
      "type": "function"
    },
    {
      "inputs": [
        {
          "internalType": "address",
          "name": "from",
          "type": "address"
        },
        {
          "internalType": "address",
          "name": "to",
          "type": "address"
        },
        {
          "internalType": "uint256",
          "name": "tokenId",
          "type": "uint256"
        },
        {
          "internalType": "bytes",
          "name": "_data",
          "type": "bytes"
        }
      ],
      "name": "safeTransferFrom",
      "outputs": [],
      "stateMutability": "nonpayable",
      "type": "function"
    },
    {
      "inputs": [
        {
          "internalType": "address",
          "name": "operator",
          "type": "address"
        },
        {
          "internalType": "bool",
          "name": "approved",
          "type": "bool"
        }
      ],
      "name": "setApprovalForAll",
      "outputs": [],
      "stateMutability": "nonpayable",
      "type": "function"
    },
    {
      "inputs": [
        {
          "internalType": "bytes4",
          "name": "interfaceId",
          "type": "bytes4"
        }
      ],
      "name": "supportsInterface",
      "outputs": [
        {
          "internalType": "bool",
          "name": "",
          "type": "bool"
        }
      ],
      "stateMutability": "view",
      "type": "function"
    },
    {
      "inputs": [],
      "name": "symbol",
      "outputs": [
        {
          "internalType": "string",
          "name": "",
          "type": "string"
        }
      ],
      "stateMutability": "view",
      "type": "function"
    },
    {
      "inputs": [
        {
          "internalType": "uint256",
          "name": "tokenId",
          "type": "uint256"
        }
      ],
      "name": "tokenURI",
      "outputs": [
        {
          "internalType": "string",
          "name": "",
          "type": "string"
        }
      ],
      "stateMutability": "view",
      "type": "function"
    },
    {
      "inputs": [
        {
          "internalType": "address",
          "name": "from",
          "type": "address"
        },
        {
          "internalType": "address",
          "name": "to",
          "type": "address"
        },
        {
          "internalType": "uint256",
          "name": "tokenId",
          "type": "uint256"
        }
      ],
      "name": "transferFrom",
      "outputs": [],
      "stateMutability": "nonpayable",
      "type": "function"
    }
  ],
  "bytecode": "0x60806040526040518061016001604052806040518060400160405280600781526020017f236135383231610000000000000000000000000000000000000000000000000081525081526020016040518060400160405280600781526020017f233438663266390000000000000000000000000000000000000000000000000081525081526020016040518060400160405280600781526020017f233762383366300000000000000000000000000000000000000000000000000081525081526020016040518060400160405280600781526020017f233337373435330000000000000000000000000000000000000000000000000081525081526020016040518060400160405280600781526020017f233134313236330000000000000000000000000000000000000000000000000081525081526020016040518060400160405280600781526020017f233231623035390000000000000000000000000000000000000000000000000081525081526020016040518060400160405280600781526020017f233534636462320000000000000000000000000000000000000000000000000081525081526020016040518060400160405280600781526020017f233731666634370000000000000000000000000000000000000000000000000081525081526020016040518060400160405280600781526020017f236264663064320000000000000000000000000000000000000000000000000081525081526020016040518060400160405280600781526020017f233733646635300000000000000000000000000000000000000000000000000081525081526020016040518060400160405280600781526020017f2336386130663600000000000000000000000000000000000000000000000000815250815250600890600b620002a9929190620006c4565b506040518061014001604052806040518060400160405280600781526020017f236338393230660000000000000000000000000000000000000000000000000081525081526020016040518060400160405280600781526020017f236233386139380000000000000000000000000000000000000000000000000081525081526020016040518060400160405280600781526020017f233133373965350000000000000000000000000000000000000000000000000081525081526020016040518060400160405280600781526020017f236666633461380000000000000000000000000000000000000000000000000081525081526020016040518060400160405280600781526020017f236364393664390000000000000000000000000000000000000000000000000081525081526020016040518060400160405280600781526020017f233639316662650000000000000000000000000000000000000000000000000081525081526020016040518060400160405280600781526020017f233438353964350000000000000000000000000000000000000000000000000081525081526020016040518060400160405280600781526020017f233234383661330000000000000000000000000000000000000000000000000081525081526020016040518060400160405280600781526020017f236566383463350000000000000000000000000000000000000000000000000081525081526020016040518060400160405280600781526020017f2365343730353700000000000000000000000000000000000000000000000000815250815250600990600a620005149291906200072b565b503480156200052257600080fd5b506040518060400160405280600981526020017f536d696c65794e465400000000000000000000000000000000000000000000008152506040518060400160405280600681526020017f534d494c455300000000000000000000000000000000000000000000000000008152508160009080519060200190620005a792919062000792565b508060019080519060200190620005c092919062000792565b505050620005f26040518060600160405280603d815260200162005274603d9139620005f860201b62001b731760201c565b620009dd565b62000698816040516024016200060f9190620008f1565b6040516020818303038152906040527f41304fac000000000000000000000000000000000000000000000000000000007bffffffffffffffffffffffffffffffffffffffffffffffffffffffff19166020820180517bffffffffffffffffffffffffffffffffffffffffffffffffffffffff83818316178352505050506200069b60201b60201c565b50565b60008151905060006a636f6e736f6c652e6c6f679050602083016000808483855afa5050505050565b82805482825590600052602060002090810192821562000718579160200282015b82811115620007175782518290805190602001906200070692919062000792565b5091602001919060010190620006e5565b5b50905062000727919062000823565b5090565b8280548282559060005260206000209081019282156200077f579160200282015b828111156200077e5782518290805190602001906200076d92919062000792565b50916020019190600101906200074c565b5b5090506200078e919062000823565b5090565b828054620007a09062000967565b90600052602060002090601f016020900481019282620007c4576000855562000810565b82601f10620007df57805160ff191683800117855562000810565b8280016001018555821562000810579182015b828111156200080f578251825591602001919060010190620007f2565b5b5090506200081f91906200084b565b5090565b5b808211156200084757600081816200083d91906200086a565b5060010162000824565b5090565b5b80821115620008665760008160009055506001016200084c565b5090565b508054620008789062000967565b6000825580601f106200088c5750620008ad565b601f016020900490600052602060002090810190620008ac91906200084b565b5b50565b6000620008bd8262000915565b620008c9818562000920565b9350620008db81856020860162000931565b620008e681620009cc565b840191505092915050565b600060208201905081810360008301526200090d8184620008b0565b905092915050565b600081519050919050565b600082825260208201905092915050565b60005b838110156200095157808201518184015260208101905062000934565b8381111562000961576000848401525b50505050565b600060028204905060018216806200098057607f821691505b602082108114156200099757620009966200099d565b5b50919050565b7f4e487b7100000000000000000000000000000000000000000000000000000000600052602260045260246000fd5b6000601f19601f8301169050919050565b61488780620009ed6000396000f3fe608060405234801561001057600080fd5b50600436106101165760003560e01c806370a08231116100a2578063a22cb46511610071578063a22cb46514610319578063b88d4fde14610335578063bd2d81a514610351578063c87b56dd1461035b578063e985e9c51461038b57610116565b806370a082311461027d578063901d331d146102ad578063914dd38f146102cb57806395d89b41146102fb57610116565b806323b872dd116100e957806323b872dd146101b557806342842e0e146101d15780634c8a74bb146101ed578063619b16951461021d5780636352211e1461024d57610116565b806301ffc9a71461011b57806306fdde031461014b578063081812fc14610169578063095ea7b314610199575b600080fd5b61013560048036038101906101309190612ffc565b6103bb565b6040516101429190613767565b60405180910390f35b61015361049d565b6040516101609190613782565b60405180910390f35b610183600480360381019061017e919061304e565b61052f565b60405161019091906136d7565b60405180910390f35b6101b360048036038101906101ae9190612fc0565b6105b4565b005b6101cf60048036038101906101ca9190612eba565b6106cc565b005b6101eb60048036038101906101e69190612eba565b61072c565b005b6102076004803603810190610202919061304e565b61074c565b6040516102149190613782565b60405180910390f35b6102376004803603810190610232919061304e565b610c5b565b6040516102449190613782565b60405180910390f35b6102676004803603810190610262919061304e565b610d64565b60405161027491906136d7565b60405180910390f35b61029760048036038101906102929190612e55565b610e16565b6040516102a49190613a02565b60405180910390f35b6102b5610ece565b6040516102c29190613a02565b60405180910390f35b6102e560048036038101906102e0919061304e565b610eeb565b6040516102f29190613782565b60405180910390f35b610303611606565b6040516103109190613782565b60405180910390f35b610333600480360381019061032e9190612f84565b611698565b005b61034f600480360381019061034a9190612f09565b6116ae565b005b610359611710565b005b6103756004803603810190610370919061304e565b61198d565b6040516103829190613782565b60405180910390f35b6103a560048036038101906103a09190612e7e565b611adf565b6040516103b29190613767565b60405180910390f35b60007f80ac58cd000000000000000000000000000000000000000000000000000000007bffffffffffffffffffffffffffffffffffffffffffffffffffffffff1916827bffffffffffffffffffffffffffffffffffffffffffffffffffffffff1916148061048657507f5b5e139f000000000000000000000000000000000000000000000000000000007bffffffffffffffffffffffffffffffffffffffffffffffffffffffff1916827bffffffffffffffffffffffffffffffffffffffffffffffffffffffff1916145b80610496575061049582611c0c565b5b9050919050565b6060600080546104ac90613c96565b80601f01602080910402602001604051908101604052809291908181526020018280546104d890613c96565b80156105255780601f106104fa57610100808354040283529160200191610525565b820191906000526020600020905b81548152906001019060200180831161050857829003601f168201915b5050505050905090565b600061053a82611c76565b610579576040517f08c379a000000000000000000000000000000000000000000000000000000000815260040161057090613962565b60405180910390fd5b6004600083815260200190815260200160002060009054906101000a900473ffffffffffffffffffffffffffffffffffffffff169050919050565b60006105bf82610d64565b90508073ffffffffffffffffffffffffffffffffffffffff168373ffffffffffffffffffffffffffffffffffffffff161415610630576040517f08c379a0000000000000000000000000000000000000000000000000000000008152600401610627906139a2565b60405180910390fd5b8073ffffffffffffffffffffffffffffffffffffffff1661064f611ce2565b73ffffffffffffffffffffffffffffffffffffffff16148061067e575061067d81610678611ce2565b611adf565b5b6106bd576040517f08c379a00000000000000000000000000000000000000000000000000000000081526004016106b4906138a2565b60405180910390fd5b6106c78383611cea565b505050565b6106dd6106d7611ce2565b82611da3565b61071c576040517f08c379a0000000000000000000000000000000000000000000000000000000008152600401610713906139e2565b60405180910390fd5b610727838383611e81565b505050565b610747838383604051806020016040528060008152506116ae565b505050565b606060006107976040518060400160405280600b81526020017f6d6f75746820636f6c6f720000000000000000000000000000000000000000008152508460088054905060006120e8565b90506000600882815481106107d5577f4e487b7100000000000000000000000000000000000000000000000000000000600052603260045260246000fd5b9060005260206000200180546107ea90613c96565b80601f016020809104026020016040519081016040528092919081815260200182805461081690613c96565b80156108635780601f1061083857610100808354040283529160200191610863565b820191906000526020600020905b81548152906001019060200180831161084657829003601f168201915b505050505090506000806108b06040518060400160405280600b81526020017f66726f776e79206661636500000000000000000000000000000000000000000081525087606460006120e8565b905060008114156108c057600191505b60006109066040518060400160405280601081526020017f61206d6f7574682071782076616c7565000000000000000000000000000000008152508861025860006120e8565b9050600061094e6040518060400160405280601081526020017f61206d6f7574682071792076616c75650000000000000000000000000000000081525089610113604b6120e8565b905060006109956040518060400160405280601381526020017f61206d6f7574682077696474682076616c7565000000000000000000000000008152508a601460056120e8565b905060608515610af7576040518060400160405280601381526020017f3c7061746820643d276d313030203630302071000000000000000000000000008152506109de85612141565b6040518060400160405280600281526020017f202d000000000000000000000000000000000000000000000000000000000000815250610a1d86612141565b6040518060400160405280601681526020017f20363030203027207374726f6b652d77696474683d2700000000000000000000815250610a5c87612141565b6040518060400160405280600a81526020017f27207374726f6b653d27000000000000000000000000000000000000000000008152508d6040518060400160405280602081526020017f272066696c6c3d276e6f6e65272066696c7465723d2775726c28236229272f3e815250604051602001610ae199989796959493929190613565565b6040516020818303038152906040529050610c4b565b6040518060400160405280601381526020017f3c7061746820643d276d31303020353030207100000000000000000000000000815250610b3685612141565b6040518060400160405280600181526020017f2000000000000000000000000000000000000000000000000000000000000000815250610b7586612141565b6040518060400160405280601681526020017f20363030203027207374726f6b652d77696474683d2700000000000000000000815250610bb487612141565b6040518060400160405280600a81526020017f27207374726f6b653d27000000000000000000000000000000000000000000008152508d6040518060400160405280602081526020017f272066696c6c3d276e6f6e65272066696c7465723d2775726c28236229272f3e815250604051602001610c3999989796959493929190613565565b60405160208183030381529060405290505b8098505050505050505050919050565b60606000610ca66040518060400160405280600c81526020017f61206661636520636f6c6f7200000000000000000000000000000000000000008152508460098054905060006120e8565b90506040518060600160405280602881526020016145496028913960098281548110610cfb577f4e487b7100000000000000000000000000000000000000000000000000000000600052603260045260246000fd5b906000526020600020016040518060400160405280600381526020017f272f3e0000000000000000000000000000000000000000000000000000000000815250604051602001610d4d939291906135e4565b604051602081830303815290604052915050919050565b6000806002600084815260200190815260200160002060009054906101000a900473ffffffffffffffffffffffffffffffffffffffff169050600073ffffffffffffffffffffffffffffffffffffffff168173ffffffffffffffffffffffffffffffffffffffff161415610e0d576040517f08c379a0000000000000000000000000000000000000000000000000000000008152600401610e04906138e2565b60405180910390fd5b80915050919050565b60008073ffffffffffffffffffffffffffffffffffffffff168273ffffffffffffffffffffffffffffffffffffffff161415610e87576040517f08c379a0000000000000000000000000000000000000000000000000000000008152600401610e7e906138c2565b60405180910390fd5b600360008373ffffffffffffffffffffffffffffffffffffffff1673ffffffffffffffffffffffffffffffffffffffff168152602001908152602001600020549050919050565b60006001610edc60076122ee565b610ee69190613acb565b905090565b60606000610f366040518060400160405280600f81526020017f66697273742065796520636f6c6f7200000000000000000000000000000000008152508460088054905060006120e8565b9050600060088281548110610f74577f4e487b7100000000000000000000000000000000000000000000000000000000600052603260045260246000fd5b906000526020600020018054610f8990613c96565b80601f0160208091040260200160405190810160405280929190818152602001828054610fb590613c96565b80156110025780601f10610fd757610100808354040283529160200191611002565b820191906000526020600020905b815481529060010190602001808311610fe557829003601f168201915b50505050509050606060006110506040518060400160405280600e81526020017f646966666572656e74206579657300000000000000000000000000000000000081525087606460006120e8565b90506000811415611178576110a26040518060400160405280601081526020017f7365636f6e642065796520636f6c6f72000000000000000000000000000000008152508760088054905060006120e8565b9350600884815481106110de577f4e487b7100000000000000000000000000000000000000000000000000000000600052603260045260246000fd5b9060005260206000200180546110f390613c96565b80601f016020809104026020016040519081016040528092919081815260200182805461111f90613c96565b801561116c5780601f106111415761010080835404028352916020019161116c565b820191906000526020600020905b81548152906001019060200180831161114f57829003601f168201915b5050505050915061117c565b8291505b60006111c16040518060400160405280601081526020017f61206c65667420657965207820706f730000000000000000000000000000000081525088608c60966120e8565b905060006112086040518060400160405280601081526020017f61206c65667420657965207920706f730000000000000000000000000000000081525089603260fa6120e8565b9050600061124f6040518060400160405280601081526020017f61206c6566742065796520722076616c000000000000000000000000000000008152508a604b60196120e8565b905060006112976040518060400160405280601181526020017f6120726967687420657965207820706f730000000000000000000000000000008152508b608c6101fe6120e8565b905060006112de6040518060400160405280601181526020017f6120726967687420657965207920706f730000000000000000000000000000008152508c603260fa6120e8565b905060006113256040518060400160405280601181526020017f612072696768742065796520722076616c0000000000000000000000000000008152508d604b60196120e8565b905060006040518060400160405280600c81526020017f3c636972636c652063783d27000000000000000000000000000000000000000081525061136888612141565b6040518060400160405280600681526020017f272063793d2700000000000000000000000000000000000000000000000000008152506113a789612141565b6040518060400160405280600881526020017f272066696c6c3d270000000000000000000000000000000000000000000000008152508e6040518060400160405280601681526020017f272066696c7465723d2775726c282361292720723d270000000000000000000081525061141d8c612141565b6040518060400160405280600381526020017f272f3e000000000000000000000000000000000000000000000000000000000081525060405160200161146b99989796959493929190613565565b604051602081830303815290604052905060006040518060400160405280600c81526020017f3c636972636c652063783d2700000000000000000000000000000000000000008152506114bd86612141565b6040518060400160405280600681526020017f272063793d2700000000000000000000000000000000000000000000000000008152506114fc87612141565b6040518060400160405280600881526020017f272066696c6c3d270000000000000000000000000000000000000000000000008152508e6040518060400160405280601681526020017f272066696c7465723d2775726c282361292720723d27000000000000000000008152506115728a612141565b6040518060400160405280600381526020017f272f3e00000000000000000000000000000000000000000000000000000000008152506040516020016115c099989796959493929190613565565b604051602081830303815290604052905081816040516020016115e49291906134f6565b6040516020818303038152906040529c50505050505050505050505050919050565b60606001805461161590613c96565b80601f016020809104026020016040519081016040528092919081815260200182805461164190613c96565b801561168e5780601f106116635761010080835404028352916020019161168e565b820191906000526020600020905b81548152906001019060200180831161167157829003601f168201915b5050505050905090565b6116aa6116a3611ce2565b83836122fc565b5050565b6116bf6116b9611ce2565b83611da3565b6116fe576040517f08c379a00000000000000000000000000000000000000000000000000000000081526004016116f5906139e2565b60405180910390fd5b61170a84848484612469565b50505050565b600061171c60076122ee565b905060648110611761576040517f08c379a0000000000000000000000000000000000000000000000000000000008152600401611758906139c2565b60405180910390fd5b600061176c82610c5b565b9050600061177983610eeb565b905060006117868461074c565b905060006040518061032001604052806102e181526020016145716102e191398484846040518060400160405280600a81526020017f3c2f673e3c2f7376673e000000000000000000000000000000000000000000008152506040516020016117f395949392919061351a565b6040516020818303038152906040529050600061185f61181287612141565b6040516020016118229190613615565b60405160208183030381529060405261183a846124c5565b60405160200161184b929190613637565b6040516020818303038152906040526124c5565b9050600081604051602001611874919061367c565b60405160208183030381529060405290506118c36040518060400160405280601581526020017f0a2d2d2d2d2d2d2d2d2d2d2d2d2d2d2d2d2d2d2d2d0000000000000000000000815250611b73565b6118cc81611b73565b61190a6040518060400160405280601581526020017f2d2d2d2d2d2d2d2d2d2d2d2d2d2d2d2d2d2d2d2d0a0000000000000000000000815250611b73565b6119143388612683565b61191e87826126a1565b6119286007612715565b61194b6040518060600160405280602581526020016144e460259139883361272b565b7f66221fae36f135c0dfdc3431cfc6c3a9ff901afb60f1703f1a2340d97db03854338860405161197c92919061373e565b60405180910390a150505050505050565b606061199882611c76565b6119d7576040517f08c379a00000000000000000000000000000000000000000000000000000000081526004016119ce90613942565b60405180910390fd5b60006006600084815260200190815260200160002080546119f790613c96565b80601f0160208091040260200160405190810160405280929190818152602001828054611a2390613c96565b8015611a705780601f10611a4557610100808354040283529160200191611a70565b820191906000526020600020905b815481529060010190602001808311611a5357829003601f168201915b505050505090506000611a816127ca565b9050600081511415611a97578192505050611ada565b600082511115611acc578082604051602001611ab49291906134f6565b60405160208183030381529060405292505050611ada565b611ad5846127e1565b925050505b919050565b6000600560008473ffffffffffffffffffffffffffffffffffffffff1673ffffffffffffffffffffffffffffffffffffffff16815260200190815260200160002060008373ffffffffffffffffffffffffffffffffffffffff1673ffffffffffffffffffffffffffffffffffffffff16815260200190815260200160002060009054906101000a900460ff16905092915050565b611c0981604051602401611b879190613782565b6040516020818303038152906040527f41304fac000000000000000000000000000000000000000000000000000000007bffffffffffffffffffffffffffffffffffffffffffffffffffffffff19166020820180517bffffffffffffffffffffffffffffffffffffffffffffffffffffffff8381831617835250505050612888565b50565b60007f01ffc9a7000000000000000000000000000000000000000000000000000000007bffffffffffffffffffffffffffffffffffffffffffffffffffffffff1916827bffffffffffffffffffffffffffffffffffffffffffffffffffffffff1916149050919050565b60008073ffffffffffffffffffffffffffffffffffffffff166002600084815260200190815260200160002060009054906101000a900473ffffffffffffffffffffffffffffffffffffffff1673ffffffffffffffffffffffffffffffffffffffff1614159050919050565b600033905090565b816004600083815260200190815260200160002060006101000a81548173ffffffffffffffffffffffffffffffffffffffff021916908373ffffffffffffffffffffffffffffffffffffffff160217905550808273ffffffffffffffffffffffffffffffffffffffff16611d5d83610d64565b73ffffffffffffffffffffffffffffffffffffffff167f8c5be1e5ebec7d5bd14f71427d1e84f3dd0314c0f7b2291e5b200ac8c7c3b92560405160405180910390a45050565b6000611dae82611c76565b611ded576040517f08c379a0000000000000000000000000000000000000000000000000000000008152600401611de490613882565b60405180910390fd5b6000611df883610d64565b90508073ffffffffffffffffffffffffffffffffffffffff168473ffffffffffffffffffffffffffffffffffffffff161480611e6757508373ffffffffffffffffffffffffffffffffffffffff16611e4f8461052f565b73ffffffffffffffffffffffffffffffffffffffff16145b80611e785750611e778185611adf565b5b91505092915050565b8273ffffffffffffffffffffffffffffffffffffffff16611ea182610d64565b73ffffffffffffffffffffffffffffffffffffffff1614611ef7576040517f08c379a0000000000000000000000000000000000000000000000000000000008152600401611eee90613802565b60405180910390fd5b600073ffffffffffffffffffffffffffffffffffffffff168273ffffffffffffffffffffffffffffffffffffffff161415611f67576040517f08c379a0000000000000000000000000000000000000000000000000000000008152600401611f5e90613842565b60405180910390fd5b611f728383836128b1565b611f7d600082611cea565b6001600360008573ffffffffffffffffffffffffffffffffffffffff1673ffffffffffffffffffffffffffffffffffffffff1681526020019081526020016000206000828254611fcd9190613bac565b925050819055506001600360008473ffffffffffffffffffffffffffffffffffffffff1673ffffffffffffffffffffffffffffffffffffffff16815260200190815260200160002060008282546120249190613acb565b92505081905550816002600083815260200190815260200160002060006101000a81548173ffffffffffffffffffffffffffffffffffffffff021916908373ffffffffffffffffffffffffffffffffffffffff160217905550808273ffffffffffffffffffffffffffffffffffffffff168473ffffffffffffffffffffffffffffffffffffffff167fddf252ad1be2c89b69c2b068fc378daa952ba7f163c4a11628f55a4df523b3ef60405160405180910390a46120e38383836128b6565b505050565b60008061211d866120f887612141565b6040516020016121099291906134f6565b6040516020818303038152906040526128bb565b905082848261212c9190613d70565b6121369190613acb565b915050949350505050565b60606000821415612189576040518060400160405280600181526020017f300000000000000000000000000000000000000000000000000000000000000081525090506122e9565b600082905060005b600082146121bb5780806121a490613cf9565b915050600a826121b49190613b21565b9150612191565b60008167ffffffffffffffff8111156121fd577f4e487b7100000000000000000000000000000000000000000000000000000000600052604160045260246000fd5b6040519080825280601f01601f19166020018201604052801561222f5781602001600182028036833780820191505090505b5090505b600085146122e2576001826122489190613bac565b9150600a856122579190613d70565b60306122639190613acb565b60f81b81838151811061229f577f4e487b7100000000000000000000000000000000000000000000000000000000600052603260045260246000fd5b60200101907effffffffffffffffffffffffffffffffffffffffffffffffffffffffffffff1916908160001a905350600a856122db9190613b21565b9450612233565b8093505050505b919050565b600081600001549050919050565b8173ffffffffffffffffffffffffffffffffffffffff168373ffffffffffffffffffffffffffffffffffffffff16141561236b576040517f08c379a000000000000000000000000000000000000000000000000000000000815260040161236290613862565b60405180910390fd5b80600560008573ffffffffffffffffffffffffffffffffffffffff1673ffffffffffffffffffffffffffffffffffffffff16815260200190815260200160002060008473ffffffffffffffffffffffffffffffffffffffff1673ffffffffffffffffffffffffffffffffffffffff16815260200190815260200160002060006101000a81548160ff0219169083151502179055508173ffffffffffffffffffffffffffffffffffffffff168373ffffffffffffffffffffffffffffffffffffffff167f17307eab39ab6107e8899845ad3d59bd9653f200f220920489ca2b5937696c318360405161245c9190613767565b60405180910390a3505050565b612474848484611e81565b612480848484846128f2565b6124bf576040517f08c379a00000000000000000000000000000000000000000000000000000000081526004016124b6906137e2565b60405180910390fd5b50505050565b606060008251905060008114156124ee576040518060200160405280600081525091505061267e565b600060036002836124ff9190613acb565b6125099190613b21565b60046125159190613b52565b905060006020826125269190613acb565b67ffffffffffffffff811115612565577f4e487b7100000000000000000000000000000000000000000000000000000000600052604160045260246000fd5b6040519080825280601f01601f1916602001820160405280156125975781602001600182028036833780820191505090505b5090506000604051806060016040528060408152602001614509604091399050600181016020830160005b8681101561263b5760038101905062ffffff818a015116603f8160121c168401518060081b905060ff603f83600c1c1686015116810190508060081b905060ff603f8360061c1686015116810190508060081b905060ff603f831686015116810190508060e01b905080845260048401935050506125c2565b506003860660018114612655576002811461266557612670565b613d3d60f01b6002830352612670565b603d60f81b60018303525b508484525050819450505050505b919050565b61269d828260405180602001604052806000815250612a89565b5050565b6126aa82611c76565b6126e9576040517f08c379a00000000000000000000000000000000000000000000000000000000081526004016126e090613902565b60405180910390fd5b80600660008481526020019081526020016000209080519060200190612710929190612ce1565b505050565b6001816000016000828254019250508190555050565b6127c5838383604051602401612743939291906137a4565b6040516020818303038152906040527fe3849f79000000000000000000000000000000000000000000000000000000007bffffffffffffffffffffffffffffffffffffffffffffffffffffffff19166020820180517bffffffffffffffffffffffffffffffffffffffffffffffffffffffff8381831617835250505050612888565b505050565b606060405180602001604052806000815250905090565b60606127ec82611c76565b61282b576040517f08c379a000000000000000000000000000000000000000000000000000000000815260040161282290613982565b60405180910390fd5b60006128356127ca565b905060008151116128555760405180602001604052806000815250612880565b8061285f84612141565b6040516020016128709291906134f6565b6040516020818303038152906040525b915050919050565b60008151905060006a636f6e736f6c652e6c6f679050602083016000808483855afa5050505050565b505050565b505050565b60004233836040516020016128d29392919061369e565b6040516020818303038152906040528051906020012060001c9050919050565b60006129138473ffffffffffffffffffffffffffffffffffffffff16612ae4565b15612a7c578373ffffffffffffffffffffffffffffffffffffffff1663150b7a0261293c611ce2565b8786866040518563ffffffff1660e01b815260040161295e94939291906136f2565b602060405180830381600087803b15801561297857600080fd5b505af19250505080156129a957506040513d601f19601f820116820180604052508101906129a69190613025565b60015b612a2c573d80600081146129d9576040519150601f19603f3d011682016040523d82523d6000602084013e6129de565b606091505b50600081511415612a24576040517f08c379a0000000000000000000000000000000000000000000000000000000008152600401612a1b906137e2565b60405180910390fd5b805181602001fd5b63150b7a0260e01b7bffffffffffffffffffffffffffffffffffffffffffffffffffffffff1916817bffffffffffffffffffffffffffffffffffffffffffffffffffffffff191614915050612a81565b600190505b949350505050565b612a938383612b07565b612aa060008484846128f2565b612adf576040517f08c379a0000000000000000000000000000000000000000000000000000000008152600401612ad6906137e2565b60405180910390fd5b505050565b6000808273ffffffffffffffffffffffffffffffffffffffff163b119050919050565b600073ffffffffffffffffffffffffffffffffffffffff168273ffffffffffffffffffffffffffffffffffffffff161415612b77576040517f08c379a0000000000000000000000000000000000000000000000000000000008152600401612b6e90613922565b60405180910390fd5b612b8081611c76565b15612bc0576040517f08c379a0000000000000000000000000000000000000000000000000000000008152600401612bb790613822565b60405180910390fd5b612bcc600083836128b1565b6001600360008473ffffffffffffffffffffffffffffffffffffffff1673ffffffffffffffffffffffffffffffffffffffff1681526020019081526020016000206000828254612c1c9190613acb565b92505081905550816002600083815260200190815260200160002060006101000a81548173ffffffffffffffffffffffffffffffffffffffff021916908373ffffffffffffffffffffffffffffffffffffffff160217905550808273ffffffffffffffffffffffffffffffffffffffff16600073ffffffffffffffffffffffffffffffffffffffff167fddf252ad1be2c89b69c2b068fc378daa952ba7f163c4a11628f55a4df523b3ef60405160405180910390a4612cdd600083836128b6565b5050565b828054612ced90613c96565b90600052602060002090601f016020900481019282612d0f5760008555612d56565b82601f10612d2857805160ff1916838001178555612d56565b82800160010185558215612d56579182015b82811115612d55578251825591602001919060010190612d3a565b5b509050612d639190612d67565b5090565b5b80821115612d80576000816000905550600101612d68565b5090565b6000612d97612d9284613a42565b613a1d565b905082815260208101848484011115612daf57600080fd5b612dba848285613c54565b509392505050565b600081359050612dd181614487565b92915050565b600081359050612de68161449e565b92915050565b600081359050612dfb816144b5565b92915050565b600081519050612e10816144b5565b92915050565b600082601f830112612e2757600080fd5b8135612e37848260208601612d84565b91505092915050565b600081359050612e4f816144cc565b92915050565b600060208284031215612e6757600080fd5b6000612e7584828501612dc2565b91505092915050565b60008060408385031215612e9157600080fd5b6000612e9f85828601612dc2565b9250506020612eb085828601612dc2565b9150509250929050565b600080600060608486031215612ecf57600080fd5b6000612edd86828701612dc2565b9350506020612eee86828701612dc2565b9250506040612eff86828701612e40565b9150509250925092565b60008060008060808587031215612f1f57600080fd5b6000612f2d87828801612dc2565b9450506020612f3e87828801612dc2565b9350506040612f4f87828801612e40565b925050606085013567ffffffffffffffff811115612f6c57600080fd5b612f7887828801612e16565b91505092959194509250565b60008060408385031215612f9757600080fd5b6000612fa585828601612dc2565b9250506020612fb685828601612dd7565b9150509250929050565b60008060408385031215612fd357600080fd5b6000612fe185828601612dc2565b9250506020612ff285828601612e40565b9150509250929050565b60006020828403121561300e57600080fd5b600061301c84828501612dec565b91505092915050565b60006020828403121561303757600080fd5b600061304584828501612e01565b91505092915050565b60006020828403121561306057600080fd5b600061306e84828501612e40565b91505092915050565b61308081613be0565b82525050565b61309761309282613be0565b613d42565b82525050565b6130a681613bf2565b82525050565b60006130b782613a88565b6130c18185613a9e565b93506130d1818560208601613c63565b6130da81613e5d565b840191505092915050565b60006130f082613a93565b6130fa8185613aaf565b935061310a818560208601613c63565b61311381613e5d565b840191505092915050565b600061312982613a93565b6131338185613ac0565b9350613143818560208601613c63565b80840191505092915050565b6000815461315c81613c96565b6131668186613ac0565b945060018216600081146131815760018114613192576131c5565b60ff198316865281860193506131c5565b61319b85613a73565b60005b838110156131bd5781548189015260018201915060208101905061319e565b838801955050505b50505092915050565b60006131db600883613ac0565b91506131e682613e7b565b600882019050919050565b60006131fe603283613aaf565b915061320982613ea4565b604082019050919050565b6000613221602583613aaf565b915061322c82613ef3565b604082019050919050565b6000613244601c83613aaf565b915061324f82613f42565b602082019050919050565b6000613267602483613aaf565b915061327282613f6b565b604082019050919050565b600061328a601983613aaf565b915061329582613fba565b602082019050919050565b60006132ad602c83613aaf565b91506132b882613fe3565b604082019050919050565b60006132d0606483613ac0565b91506132db82614032565b606482019050919050565b60006132f3603883613aaf565b91506132fe826140cd565b604082019050919050565b6000613316602a83613aaf565b91506133218261411c565b604082019050919050565b6000613339602983613aaf565b91506133448261416b565b604082019050919050565b600061335c602e83613aaf565b9150613367826141ba565b604082019050919050565b600061337f600283613ac0565b915061338a82614209565b600282019050919050565b60006133a2602083613aaf565b91506133ad82614232565b602082019050919050565b60006133c5603183613aaf565b91506133d08261425b565b604082019050919050565b60006133e8602c83613aaf565b91506133f3826142aa565b604082019050919050565b600061340b602f83613aaf565b9150613416826142f9565b604082019050919050565b600061342e600a83613ac0565b915061343982614348565b600a82019050919050565b6000613451602183613aaf565b915061345c82614371565b604082019050919050565b6000613474601d83613ac0565b915061347f826143c0565b601d82019050919050565b6000613497603383613aaf565b91506134a2826143e9565b604082019050919050565b60006134ba603183613aaf565b91506134c582614438565b604082019050919050565b6134d981613c4a565b82525050565b6134f06134eb82613c4a565b613d66565b82525050565b6000613502828561311e565b915061350e828461311e565b91508190509392505050565b6000613526828861311e565b9150613532828761311e565b915061353e828661311e565b915061354a828561311e565b9150613556828461311e565b91508190509695505050505050565b6000613571828c61311e565b915061357d828b61311e565b9150613589828a61311e565b9150613595828961311e565b91506135a1828861311e565b91506135ad828761311e565b91506135b9828661311e565b91506135c5828561311e565b91506135d1828461311e565b91508190509a9950505050505050505050565b60006135f0828661311e565b91506135fc828561314f565b9150613608828461311e565b9150819050949350505050565b6000613620826131ce565b915061362c828461311e565b915081905092915050565b600061364282613421565b915061364e828561311e565b9150613659826132c3565b9150613665828461311e565b915061367082613372565b91508190509392505050565b600061368782613467565b9150613693828461311e565b915081905092915050565b60006136aa82866134df565b6020820191506136ba8285613086565b6014820191506136ca828461311e565b9150819050949350505050565b60006020820190506136ec6000830184613077565b92915050565b60006080820190506137076000830187613077565b6137146020830186613077565b61372160408301856134d0565b818103606083015261373381846130ac565b905095945050505050565b60006040820190506137536000830185613077565b61376060208301846134d0565b9392505050565b600060208201905061377c600083018461309d565b92915050565b6000602082019050818103600083015261379c81846130e5565b905092915050565b600060608201905081810360008301526137be81866130e5565b90506137cd60208301856134d0565b6137da6040830184613077565b949350505050565b600060208201905081810360008301526137fb816131f1565b9050919050565b6000602082019050818103600083015261381b81613214565b9050919050565b6000602082019050818103600083015261383b81613237565b9050919050565b6000602082019050818103600083015261385b8161325a565b9050919050565b6000602082019050818103600083015261387b8161327d565b9050919050565b6000602082019050818103600083015261389b816132a0565b9050919050565b600060208201905081810360008301526138bb816132e6565b9050919050565b600060208201905081810360008301526138db81613309565b9050919050565b600060208201905081810360008301526138fb8161332c565b9050919050565b6000602082019050818103600083015261391b8161334f565b9050919050565b6000602082019050818103600083015261393b81613395565b9050919050565b6000602082019050818103600083015261395b816133b8565b9050919050565b6000602082019050818103600083015261397b816133db565b9050919050565b6000602082019050818103600083015261399b816133fe565b9050919050565b600060208201905081810360008301526139bb81613444565b9050919050565b600060208201905081810360008301526139db8161348a565b9050919050565b600060208201905081810360008301526139fb816134ad565b9050919050565b6000602082019050613a1760008301846134d0565b92915050565b6000613a27613a38565b9050613a338282613cc8565b919050565b6000604051905090565b600067ffffffffffffffff821115613a5d57613a5c613e2e565b5b613a6682613e5d565b9050602081019050919050565b60008190508160005260206000209050919050565b600081519050919050565b600081519050919050565b600082825260208201905092915050565b600082825260208201905092915050565b600081905092915050565b6000613ad682613c4a565b9150613ae183613c4a565b9250827fffffffffffffffffffffffffffffffffffffffffffffffffffffffffffffffff03821115613b1657613b15613da1565b5b828201905092915050565b6000613b2c82613c4a565b9150613b3783613c4a565b925082613b4757613b46613dd0565b5b828204905092915050565b6000613b5d82613c4a565b9150613b6883613c4a565b9250817fffffffffffffffffffffffffffffffffffffffffffffffffffffffffffffffff0483118215151615613ba157613ba0613da1565b5b828202905092915050565b6000613bb782613c4a565b9150613bc283613c4a565b925082821015613bd557613bd4613da1565b5b828203905092915050565b6000613beb82613c2a565b9050919050565b60008115159050919050565b60007fffffffff0000000000000000000000000000000000000000000000000000000082169050919050565b600073ffffffffffffffffffffffffffffffffffffffff82169050919050565b6000819050919050565b82818337600083830152505050565b60005b83811015613c81578082015181840152602081019050613c66565b83811115613c90576000848401525b50505050565b60006002820490506001821680613cae57607f821691505b60208210811415613cc257613cc1613dff565b5b50919050565b613cd182613e5d565b810181811067ffffffffffffffff82111715613cf057613cef613e2e565b5b80604052505050565b6000613d0482613c4a565b91507fffffffffffffffffffffffffffffffffffffffffffffffffffffffffffffffff821415613d3757613d36613da1565b5b600182019050919050565b6000613d4d82613d54565b9050919050565b6000613d5f82613e6e565b9050919050565b6000819050919050565b6000613d7b82613c4a565b9150613d8683613c4a565b925082613d9657613d95613dd0565b5b828206905092915050565b7f4e487b7100000000000000000000000000000000000000000000000000000000600052601160045260246000fd5b7f4e487b7100000000000000000000000000000000000000000000000000000000600052601260045260246000fd5b7f4e487b7100000000000000000000000000000000000000000000000000000000600052602260045260246000fd5b7f4e487b7100000000000000000000000000000000000000000000000000000000600052604160045260246000fd5b6000601f19601f8301169050919050565b60008160601b9050919050565b7f536d696c65792023000000000000000000000000000000000000000000000000600082015250565b7f4552433732313a207472616e7366657220746f206e6f6e20455243373231526560008201527f63656976657220696d706c656d656e7465720000000000000000000000000000602082015250565b7f4552433732313a207472616e736665722066726f6d20696e636f72726563742060008201527f6f776e6572000000000000000000000000000000000000000000000000000000602082015250565b7f4552433732313a20746f6b656e20616c7265616479206d696e74656400000000600082015250565b7f4552433732313a207472616e7366657220746f20746865207a65726f2061646460008201527f7265737300000000000000000000000000000000000000000000000000000000602082015250565b7f4552433732313a20617070726f766520746f2063616c6c657200000000000000600082015250565b7f4552433732313a206f70657261746f7220717565727920666f72206e6f6e657860008201527f697374656e7420746f6b656e0000000000000000000000000000000000000000602082015250565b7f222c20226465736372697074696f6e223a20224120636f6c6c656374696f6e2060008201527f6f6620736d696c65732e204d6179626520736f6d652066726f776e732e222c2060208201527f22696d616765223a2022646174613a696d6167652f7376672b786d6c3b62617360408201527f6536342c00000000000000000000000000000000000000000000000000000000606082015250565b7f4552433732313a20617070726f76652063616c6c6572206973206e6f74206f7760008201527f6e6572206e6f7220617070726f76656420666f7220616c6c0000000000000000602082015250565b7f4552433732313a2062616c616e636520717565727920666f7220746865207a6560008201527f726f206164647265737300000000000000000000000000000000000000000000602082015250565b7f4552433732313a206f776e657220717565727920666f72206e6f6e657869737460008201527f656e7420746f6b656e0000000000000000000000000000000000000000000000602082015250565b7f45524337323155524953746f726167653a2055524920736574206f66206e6f6e60008201527f6578697374656e7420746f6b656e000000000000000000000000000000000000602082015250565b7f227d000000000000000000000000000000000000000000000000000000000000600082015250565b7f4552433732313a206d696e7420746f20746865207a65726f2061646472657373600082015250565b7f45524337323155524953746f726167653a2055524920717565727920666f722060008201527f6e6f6e6578697374656e7420746f6b656e000000000000000000000000000000602082015250565b7f4552433732313a20617070726f76656420717565727920666f72206e6f6e657860008201527f697374656e7420746f6b656e0000000000000000000000000000000000000000602082015250565b7f4552433732314d657461646174613a2055524920717565727920666f72206e6f60008201527f6e6578697374656e7420746f6b656e0000000000000000000000000000000000602082015250565b7f7b226e616d65223a202200000000000000000000000000000000000000000000600082015250565b7f4552433732313a20617070726f76616c20746f2063757272656e74206f776e6560008201527f7200000000000000000000000000000000000000000000000000000000000000602082015250565b7f646174613a6170706c69636174696f6e2f6a736f6e3b6261736536342c000000600082015250565b7f546865206d6178206e756d626572206f6620736d696c65797320746f206d696e60008201527f7420686173206265656e20726561636865642100000000000000000000000000602082015250565b7f4552433732313a207472616e736665722063616c6c6572206973206e6f74206f60008201527f776e6572206e6f7220617070726f766564000000000000000000000000000000602082015250565b61449081613be0565b811461449b57600080fd5b50565b6144a781613bf2565b81146144b257600080fd5b50565b6144be81613bfe565b81146144c957600080fd5b50565b6144d581613c4a565b81146144e057600080fd5b5056fe416e204e465420772f20494420257320686173206265656e206d696e74656420746f2025734142434445464748494a4b4c4d4e4f505152535455565758595a6162636465666768696a6b6c6d6e6f707172737475767778797a303132333435363738392b2f3c636972636c6520723d27343030272063783d27343030272063793d27343030272066696c6c3d273c73766720786d6c6e733d27687474703a2f2f7777772e77332e6f72672f323030302f737667272076696577426f783d273020302038303020383030273e3c646566733e3c66696c7465722069643d27612720783d272d313030252720793d272d31303025272077696474683d273430302527206865696768743d2734303025272066696c746572556e6974733d276f626a656374426f756e64696e67426f7827207072696d6974697665556e6974733d277573657253706163654f6e5573652720636f6c6f722d696e746572706f6c6174696f6e2d66696c746572733d2773524742273e3c666544726f70536861646f7720737464446576696174696f6e3d273130272064783d273130272064793d2731302720666c6f6f642d636f6c6f723d27233030302720666c6f6f642d6f7061636974793d272e322720783d2730252720793d273025272077696474683d273130302527206865696768743d27313030252720726573756c743d2764726f70536861646f77272f3e3c2f66696c7465723e3c66696c7465722069643d27622720783d272d313030252720793d272d31303025272077696474683d273430302527206865696768743d2734303025272066696c746572556e6974733d276f626a656374426f756e64696e67426f7827207072696d6974697665556e6974733d277573657253706163654f6e5573652720636f6c6f722d696e746572706f6c6174696f6e2d66696c746572733d2773524742273e3c666544726f70536861646f7720737464446576696174696f6e3d273130272064783d273130272064793d2731302720666c6f6f642d636f6c6f723d27233030302720666c6f6f642d6f7061636974793d272e322720783d2730252720793d273025272077696474683d273130302527206865696768743d27313030252720726573756c743d2764726f70536861646f77272f3e3c2f66696c7465723e3c2f646566733e3c67207374726f6b652d6c696e656361703d27726f756e64273ea2646970667358221220cf4848a05370f20a7ad172b620838fd6f5c93cc1b4fc6c7b81d39955aa9eb96664736f6c6343000801003354686973206973206d7920617765736f6d6520736d696c657920286d617962652066726f776e79292066616365204e465420636f6c6c656374696f6e21",
  "linkReferences": {},
  "deployedLinkReferences": {}
}